:100000000C9434000C9451000C9451000C94510049
:100010000C9451000C9451000C9451000C9451001C
:100020000C9451000C9451000C9451000C9451000C
:100030000C9451000C9451000C9451000C945100FC
:100040000C9472000C9451000C9451000C945100CB
:100050000C9451000C949F000C9451000C9451008E
:100060000C9451000C94510011241FBECFEFD8E026
:10007000DEBFCDBF11E0A0E0B1E0E2EDF2E002C0F2
:1000800005900D92A030B107D9F711E0A0E0B1E0E2
:1000900001C01D92A430B107E1F70E9465000C94E5
:1000A00067010C94000085E480937C008FE88093C6
:1000B0007A0080E280937E000E945F000895EAE764
:1000C000F0E0808180648083089580E48AB983E8C9
:1000D00084BD81E080936E000E945300789485E097
:1000E00085BDFFCF1F920F920FB60F9211242F9351
:1000F0003F934F935F936F937F938F939F93AF93B0
:10010000BF93EF93FF936091000170910101809183
:100110000201909103010E94D50067BDFF91EF910C
:10012000BF91AF919F918F917F916F915F914F910F
:100130003F912F910F900FBE0F901F9018951F9217
:100140000F920FB60F9211242F933F934F935F930B
:100150006F937F938F939F93AF93BF93EF93FF938F
:10016000609178007091790080E090E00E94010138
:10017000DC01CB018093000190930101A093020167
:10018000B09303010E945F00FF91EF91BF91AF9187
:100190009F918F917F916F915F914F913F912F919F
:1001A0000F900FBE0F901F90189570D088F09F573A
:1001B00090F0B92F9927B751A0F0D1F0660F771FB3
:1001C000881F991F1AF0BA95C9F712C0B13081F093
:1001D00077D0B1E0089574C0672F782F8827B85F73
:1001E00039F0B93FCCF3869577956795B395D9F7F4
:1001F0003EF490958095709561957F4F8F4F9F4FFE
:100200000895E89409C097FB3EF490958095709509
:1002100061957F4F8F4F9F4F9923A9F0F92F96E952
:10022000BB279395F695879577956795B795F111C7
:10023000F8CFFAF4BB0F11F460FF1BC06F5F7F4F64
:100240008F4F9F4F16C0882311F096E911C0772376
:1002500021F09EE8872F762F05C0662371F096E87F
:10026000862F70E060E02AF09A95660F771F881F4E
:10027000DAF7880F9695879597F9089557FD905866
:10028000440F551F59F05F3F71F04795880F97FB5A
:10029000991F61F09F3F79F0879508951216130614
:1002A0001406551FF2CF4695F1DF08C01616170643
:1002B0001806991FF1CF8695710561050894089578
:1002C000E894BB2766277727CB0197F90895F89420
:0202D000FFCF5E
:00000001FF
