:100000000C942A000C9434000C9434000C943400AA
:100010000C9434000C9434000C9434000C94340090
:100020000C9434000C9434000C9434000C94340080
:100030000C9434000C9434000C9434000C94340070
:100040000C9434000C9434000C9434000C94340060
:100050000C94340011241FBECFE5D8E0DEBFCDBF25
:100060000E9436000C944E000C94000080E481BB8A
:1000700082BB2FE936E891E0215030409040E1F713
:1000800000C0000012BA2FE936E891E0215030405C
:100090009040E1F700C0000082BBEBCFF894FFCFA7
:00000001FF
