:100000000C9432000C9447000C9447000C94470069
:100010000C9447000C9447000C9447000C94470044
:100020000C9447000C9447000C9447000C94470034
:100030000C9447000C9447000C9447000C94470024
:100040000C9447000C9447000C9447000C94470014
:100050000C94470030313233343536373839414229
:100060004344454611241FBECFE5D8E0DEBFCDBFD7
:1000700010E0A0E6B0E0ECEDF5E002C005900D92D6
:10008000A837B107D9F70E9475010C94EC020C94C3
:1000900000009DE09A95F1F70000882314F4DA9AA5
:1000A00001C0DA9886FF02C0DB9A01C0DB9885FFA9
:1000B00002C0DC9A01C0DC9884FF02C0DD9A01C056
:1000C000DD98DE9ADE9883FF02C0DA9A01C0DA98E2
:1000D00082FF02C0DB9A01C0DB9881FF02C0DC9A7C
:1000E00001C0DC9880FF02C0DD9A01C0DD98DE9A75
:1000F000DE980895DF9881E00E94490083EF91E047
:100100000197F1F700C000000895CF93DF93EC0151
:10011000DF9A8881882331F021960E9449008991D5
:100120008111FBCFDF91CF910895DF9A0E944900A2
:100130000895DF9880680E9449000895D79AD69A5A
:10014000D29AD39AD49AD59ADF98DE9885EA9EE01F
:100150000197F1F700C00000DD9ADC9ADB98DA988D
:10016000DE9ADE9881EE94E00197F1F700C000007E
:10017000DE9ADE9892E49A95F1F700C0DE9ADE9856
:1001800082E48A95F1F700C0DD98DC9ADB98DA9872
:10019000DE9ADE9888E20E9449008CE00E944900C5
:1001A0000E947A0086E00E9449000895FF920F9312
:1001B0001F93CF93DF93DC016FE070E010E0C0E0AD
:1001C000D0E0E1E0F0E0F12C00E008C0CE018F705B
:1001D0009927059708F0239661507109CE01807F19
:1001E00099278035910508F0E096CE0188279F7009
:1001F0008115954008F0DD5FCE018827907F81153D
:10020000904508F0D05D110F9D2F991F9927991FD8
:10021000190FCC0FDD1F9F01062E02C0220F331FC6
:100220000A94E2F72A233B23AF01232B11F44F2D2D
:10023000502FC40FD51F6115710541F6112309F424
:100240003EC0E12FF0E0EC5AFF4F80810E94950004
:10025000FE01EF2FFF27E295EF70EC5AFF4F8491DC
:100260000E949500111104C0CF3FD105A1F198F172
:10027000ED2FFF27EF70FF27EC5AFF4F84910E946C
:100280009500111103C0C031D10568F0FE01F2954F
:10029000E295EF70EF27FF70EF27EF70FF27EC5A22
:1002A000FF4F849101C080E20E949500FE01EF7033
:1002B000FF27EC5AFF4F84910E94950010C080E206
:1002C0000E949500C11580E1D80708F0C1CF80E2F7
:1002D0000E949500C9CF80E20E949500D4CFDF91A3
:1002E000CF911F910F91FF9008958FEF8ABB1BBA9A
:1002F00017BA0E949E0080E690E00E9485002FE3DE
:100300008DE093E0215080409040E1F700C0000074
:100310000E947A00C0E0D0E000E010E0FF24F394F7
:10032000B0991DC0FBBA80E00E9499008CE690E075
:100330000E9485000F5F1F4FB801012E000C880B33
:10034000990B0E94600220E030E040EB50E40E94F4
:10035000B6010E942802EB01C8010E94D60080E489
:100360000E949900CE010E94D600DACF0E94CA01F5
:100370000C94B2020E94AB0258F00E94A40240F01A
:1003800029F45F3F29F00C949B0251110C94E60272
:100390000C94A1020E94C30268F39923B1F3552380
:1003A00091F3951B550BBB27AA2762177307840788
:1003B00038F09F5F5F4F220F331F441FAA1FA9F31E
:1003C00035D00E2E3AF0E0E832D091505040E6950C
:1003D000001CCAF72BD0FE2F29D0660F771F881F6D
:1003E000BB1F261737074807AB07B0E809F0BB0B60
:1003F000802DBF01FF2793585F4F3AF09E3F510574
:1004000078F00C949B020C94E6025F3FE4F3983E74
:10041000D4F3869577956795B795F7959F5FC9F75C
:10042000880F911D9695879597F90895E1E0660FDD
:10043000771F881FBB1F621773078407BA0720F056
:10044000621B730B840BBA0BEE1F88F7E0950895BF
:100450000E942F026894B1110C94E60208950E9444
:10046000CB0288F09F5798F0B92F9927B751B0F079
:10047000E1F0660F771F881F991F1AF0BA95C9F728
:1004800014C0B13091F00E94E502B1E008950C94DF
:10049000E502672F782F8827B85F39F0B93FCCF392
:1004A000869577956795B395D9F73EF490958095A5
:1004B000709561957F4F8F4F9F4F0895E89409C0C5
:1004C00097FB3EF490958095709561957F4F8F4F87
:1004D0009F4F9923A9F0F92F96E9BB279395F6959D
:1004E000879577956795B795F111F8CFFAF4BB0F1B
:1004F00011F460FF1BC06F5F7F4F8F4F9F4F16C07F
:10050000882311F096E911C0772321F09EE8872F08
:10051000762F05C0662371F096E8862F70E060E0C4
:100520002AF09A95660F771F881FDAF7880F96953D
:10053000879597F9089597F99F6780E870E060E0E4
:1005400008959FEF80EC089500240A94161617066C
:1005500018060906089500240A94121613061406B4
:1005600005060895092E0394000C11F4882352F017
:10057000BB0F40F4BF2B11F460FF04C06F5F7F4FCF
:100580008F4F9F4F089557FD9058440F551F59F0B6
:100590005F3F71F04795880F97FB991F61F09F3F70
:1005A00079F087950895121613061406551FF2CF99
:1005B0004695F1DF08C0161617061806991FF1CFE9
:1005C00086957105610508940895E894BB27662710
:0C05D0007727CB0197F90895F894FFCF2E
:1005DC0052756E6E696E67204C43440053656E73A2
:0805EC00696E67202020200049
:00000001FF
