:100000000C942A000C9434000C9434000C943400AA
:100010000C9434000C9434000C9434000C94340090
:100020000C9434000C9434000C9434000C94340080
:100030000C9434000C9434000C9434000C94340070
:100040000C9434000C9434000C9434000C94340060
:100050000C94340011241FBECFE5D8E0DEBFCDBF25
:100060000E9447000C9483000C940000E0E4F0E050
:10007000108286E089B988E98AB986E88083089584
:10008000EBE2F0E080818823ECF78CB10895EF92E9
:10009000FF920F931F93CF93DF93E4E5F0E080E8A6
:1000A000808380830E94360088EE93E020E931E06F
:1000B000F9013197F1F70197D9F7EAE3F0E0808190
:1000C000806C8083EBE3F0E0808180830BE310E0C1
:1000D0000F2EF0E2EF2EFEE4FF2EF02DC0E9D1E06E
:1000E0000E9440008136E1F7F801808180648083BE
:1000F0009701CE010197F1F721503040D1F7F80177
:0A01000080818083EDCFF894FFCFDB
:00000001FF
