:100000000C9434000C9451000C9451000C94510049
:100010000C9451000C9451000C9451000C9451001C
:100020000C9451000C9451000C9451000C9451000C
:100030000C9451000C9451000C945F000C945100EE
:100040000C9451000C9451000C9451000C945100EC
:100050000C9451000C9451000C9451000C945100DC
:100060000C9451000C94510011241FBECFEFD8E026
:10007000DEBFCDBF11E0A0E0B1E0E6E0F1E002C0FC
:1000800005900D92A030B107D9F711E0A0E0B1E0E2
:1000900001C01D92A230B107E1F70E9453000C94F9
:1000A00081000C94000081E084B982E084BD93EC6F
:1000B00097BD80936E00789485E085BDFFCF1F9239
:1000C0000F920FB60F9211248F939F93809100018E
:1000D0009091010101969093010180930001853672
:1000E000910544F0109201011092000195B181E058
:1000F000892785B99F918F910F900FBE0F901F9008
:060100001895F894FFCFF2
:00000001FF
