:100000000C942A000C9447000C9420020C94470096
:100010000C948D010C9447000C9447000C944700FD
:100020000C9447000C9447000C9447000C94470034
:100030000C9447000C945A010C9447000C94470010
:100040000C9447000C9447000C9447000C94470014
:100050000C94470011241FBECFE5D8E0DEBFCDBF12
:1000600011E0A0E6B0E0E0EEFDE202C005900D92E6
:10007000A238B107D9F711E0A2E8B1E001C01D92A2
:10008000A33BB107E1F70E9441060C94EE160C94D5
:1000900000005D9BFECF8CB908950F931F93DF93F3
:1000A000CF93CDB7DEB72A970FB6F894DEBF0FBE59
:1000B000CDBFFE0131969C0100E010E00FC0C901E8
:1000C0006AE070E00E944F1681939193C9016AE043
:1000D00070E00E944F169B010F5F1F4F21153105E5
:1000E00071F701501040000F111FFE013196E00F13
:1000F000F11F9E012150304006C080815D9BFECFE4
:10010000805D8CB93297E217F307B9F72A960FB6DC
:10011000F894DEBF0FBECDBFCF91DF911F910F913D
:1001200008952F923F924F925F926F927F928F929B
:100130009F92AF92BF92CF92DF92EF92FF920F9376
:100140001F93DF93CF93CDB7DEB7C455D0400FB622
:10015000F894DEBF0FBECDBF4E010894811C911CE8
:1001600062962FAF629763963FAF639764964FAFE7
:10017000649765965FAF65971B012C016624772411
:1001800047C062962FAD629763963FAD63976496C2
:100190004FAD649765965FAD6597B101C201EAE026
:1001A000AE2EBB24CC24DD24EE24FF2400E010E09E
:1001B0000E945A0EF4012083318342835383648367
:1001C00075838683978362962FAD629763963FAD62
:1001D000639764964FAD649765965FAD6597B1017F
:1001E000C2010E94E50762962FAF629763963FAF08
:1001F000639764964FAF649765965FAF65971B01F1
:100200002C010894611C711C88E090E0880E991EF6
:1002100062968FAD629763969FAD6397892B6496C4
:10022000EFAD64978E2B6596FFAD65978F2B822976
:1002300083298429852909F0A4CF089461087108CD
:1002400093E0660C771C9A95E1F7FE013196E60D76
:10025000F71D9E012750304006C080815D9BFECF78
:10026000805D8CB93897E217F307B9F7CC5ADF4FA6
:100270000FB6F894DEBF0FBECDBFCF91DF911F91B7
:100280000F91FF90EF90DF90CF90BF90AF909F9035
:100290008F907F906F905F904F903F902F90089538
:1002A000FC0104C05D9BFECF8CB931968081882310
:1002B000C9F708951F920F920FB60F9211242F9332
:1002C0003F934F935F936F937F938F939F93AF93DE
:1002D000BF93EF93FF938CB18093B20180E690E0DF
:1002E0000E945001FF91EF91BF91AF919F918F912B
:1002F0007F916F915F914F913F912F910F900FBE22
:100300000F901F90189510BC87E689B98AB188694B
:100310008AB980B5866880BD08951F920F920FB686
:100320000F9211241F932F933F934F935F936F93DB
:100330007F938F939F93AF93BF93EF93FF9380919E
:100340008201209183013091840140918501609167
:100350008601E0918701A091880110918901B82F51
:10036000BF5F91E0B81708F090E0F92FF20F81E03D
:10037000F21708F080E0782F730F81E0731708F010
:1003800080E0582F540F81E0541708F080E0382F98
:10039000360F81E0361708F080E0282F2E0F81E01D
:1003A0002E1708F080E0982F9A0F81E09A1708F036
:1003B00080E0810FB0938201F093830170938401F8
:1003C0005093850130938601209387019093880193
:1003D00080938901FF91EF91BF91AF919F918F9190
:1003E0007F916F915F914F913F912F911F910F904E
:1003F0000FBE0F901F90189585B58C6085BD8AEF54
:1004000083BD789489B7806889BF0895209182015F
:100410009091830180918401809185018091860172
:10042000809187018091880180918901822F0895B0
:1004300024B530E0220F331F220F331FC901089566
:100440001F920F920FB60F9211242F923F924F924C
:100450005F926F927F928F929F92AF92BF92CF9254
:10046000DF92EF92FF920F931F932F933F934F933F
:100470005F936F937F938F939F93AF93BF93EF930C
:10048000FF93DF93CF93CDB7DEB76797DEBFCDBFC6
:100490008091800090918100892B09F045C02091C6
:1004A00082013091830140918401509185016091D6
:1004B0008601709187018091880190918901F901ED
:1004C000FF0FEE0BFE2F2093920130939301E093E8
:1004D0009401E0939501E0939601E0939701E093F6
:1004E0009801E093990184B590E0880F991F880FD7
:1004F000991F9C01330F220B322F80939A01909306
:100500009B0120939C0120939D0120939E012093A9
:100510009F012093A0012093A10181E090E090939E
:10052000810080938000D1C28091800090918100F1
:10053000019709F0CAC22091820130918301409154
:1005400084015091850160918601709187018091AD
:10055000880190918901F901FF0FEE0BFE2F209386
:10056000A2013093A301E093A401E093A501E093DD
:10057000A601E093A701E093A801E093A90184B547
:1005800090E0880F991F880F991F9C01330F220B51
:10059000322F8093AA019093AB012093AC0120935A
:1005A000AD012093AE012093AF012093B0012093C1
:1005B000B1019090A2018090A3017090A40160907D
:1005C000A5015090A6012091A7012E873091A80186
:1005D0003F875091A901588B2090920180919301FF
:1005E0008F83909194019887A0919501A987B091EC
:1005F0009601BA87E0919701EB87F0919801FC870B
:10060000209199012D879091AA014091AB015091C1
:10061000AC017091AD01B090AE01A091AF0110910D
:10062000B001D090B10180919A0120919B0160911D
:100630009C01C0909D01B0919E0100919F01F0909E
:10064000A001E090A101392F381B398B31E0898955
:10065000981708F030E0842F821B21E0481708F03B
:1006600020E0982F931B998391E0E9818E1708F081
:1006700090E0292B852F861B31E0581708F030E0D9
:10068000F82FF21BFA8391E08F1708F090E0392BD6
:10069000872F8C1921E0781708F020E0582F531B82
:1006A0005B8391E0851708F090E0292B8B2D8B1B45
:1006B00031E0B81608F030E0982F921B9C8391E04F
:1006C000BC818B1708F090E0392B8A2F801B21E02A
:1006D000A81708F020E0E82FE31BED8391E08E17C8
:1006E00008F090E0292B812F8F1991E0181708F05E
:1006F00090E0F82FF21BFE8321E08F1708F020E036
:10070000922BDE182D2D291B2A8B392C321881E0D3
:10071000931408F080E0A82C3F81A31A91E08A147A
:1007200008F090E02A2D281B81E0A21608F080E056
:10073000982BA22EB72C5885B51A21E07B1408F00F
:1007400020E08B2D891B982F81E0B91608F080E0FE
:10075000282BB92EC62C9985C91A91E06C1408F083
:1007600090E0AC2DA21B2A2F81E0CA1608F080E091
:10077000982BC22ED52CBA85DB1A21E05D1408F027
:1007800020E0ED2DE91B9E2F81E0DE1608F080E0D1
:10079000282BD92EEE84FB85EF1A91E03E853E157D
:1007A00008F090E05E2D521B252F81E0E51608F041
:1007B00080E0982BE22EFF848C85F81A81E0AF85CB
:1007C000AF1508F080E02F2D291B91E0F21608F0FC
:1007D00090E0892BF22E4888BD854B1A942D981BEA
:1007E000492E232D3A2D4B2D5C2D6D2D7E2D8F2DD9
:1007F00002E00E946607122F932E842E652E262E6D
:100800007B8B8C8B9D8B05E00E946607A32FB42FFA
:10081000052F762E572E8E8B9F8B922F911BF1E0FA
:10082000291708F0F0E03A2F3919E1E0A31708F092
:10083000E0E0232F2F1BF22F21E03F1708F020E0EC
:10084000E22B4B2F481931E0B41708F030E0542F59
:100850005E1BE52F21E0451708F020E0322B502FDA
:10086000561941E0051708F040E0852E831A21E073
:10087000581508F020E0422B672D621931E07616FA
:1008800008F030E0162F141B21E0611708F020E07B
:10089000322B752D8B89781B41E0571608F040E00C
:1008A000072F031B21E0701708F020E0422B8E89F0
:1008B000AC898A1B21E0BE89B81708F020E0982E89
:1008C000941A31E0891508F030E0232B7F883D89A8
:1008D000731A721A292F230D81E0291708F080E07E
:1008E0003F2F3A0D61E03F1708F060E0A82EA30EFD
:1008F00081E0A31608F080E0682B4E2F4B0D71E0CD
:100900004E1708F070E0B62EB40E81E0B41608F071
:1009100080E0782B582D5C0DE1E0581508F0E0E000
:10092000C72EC50E81E0C51608F080E0E82B612FC8
:100930006D0DF1E0611708F0F0E0DE2ED60E81E0DB
:10094000D61608F080E0F82B702F7E0DA1E070170E
:1009500008F0A0E01F2F170FE1E0171708F0E0E004
:10096000AE2B892D8F0D91E0891508F090E0FA2FBC
:10097000F80FE1E0F81708F0E0E09E2B740C3A2D38
:100980004B2D5C2D6D2D712F8F2F970D03E00E9445
:100990006607A9892A0FE1E02A1708F0E0E0B9818B
:1009A0003B0FF1E03B1708F0F0E01E2F130FE1E0E2
:1009B000131708F0E0E0FE2BEA814E0FE1E03A81E8
:1009C000431708F0E0E00F2F040F31E0041708F0A0
:1009D00030E0E32BAB815A0F41E05A1708F040E0BA
:1009E000FE2FF50F31E0F51708F030E0432BBC8106
:1009F0006B0F51E06B1708F050E0E42FE60F31E089
:100A0000E61708F030E0532B3D81730F41E0731778
:100A100008F040E0652F670F31E0671708F030E01D
:100A2000432B5E81850F31E0851708F030E0542FAD
:100A3000580F41E0581708F040E0342B8A89890F9D
:100A4000380F20938A0110938B0100938C01F0934F
:100A50008D01E0938E0160938F015093900130934C
:100A6000910110928100109280001092A2011092C8
:100A7000A3011092A4011092A5011092A601109258
:100A8000A7011092A8011092A9018091A201909152
:100A9000A3012091A4013091A5014091A60150919C
:100AA000A7016091A8017091A90180939201909390
:100AB00093012093940130939501409396015093B4
:100AC000970160939801709399016796DEBFCDBF3F
:100AD000CF91DF91FF91EF91BF91AF919F918F9156
:100AE0007F916F915F914F913F912F911F910F9146
:100AF000FF90EF90DF90CF90BF90AF909F908F903E
:100B00007F906F905F904F903F902F900F900FBE0F
:100B10000F901F9018950E94FC0178948BB7806805
:100B20008BBF85B7846085BFBB9AC39AC398C39AAD
:100B30000895C398C39A089520918201309183014A
:100B40008091840180918501809186018091870147
:100B50008091880180918901C90166E470E00E945A
:100B60004F16892B11F4C398C39A0895AF92BF9280
:100B7000CF92DF92EF92FF920F931F9320918A0101
:100B800030918B0140918C0150918D0160918E01CB
:100B900070918F018091900190919101EAE3AE2EC6
:100BA000BB24CC24DD24EE24FF2400E010E00E94CE
:100BB000E507C9011F910F91FF90EF90DF90CF9053
:100BC000BF90AF9008958FB5826A8FBD8EB5896151
:100BD0008EBD81B3806381BB8FE99FE097BD86BDE9
:100BE000789408959C0184B38C6084BB21303105D6
:100BF00019F4AA9AAB980895232B11F4AA98AB9AEA
:100C000008959C0184B3806384BB2130310519F4BD
:100C1000AC9AAD980895232B11F4AC98AD9A089531
:100C2000AA2797FDA095BA2FBC01CD010E9460159F
:100C300020E030E048EC52E40E94CA1420E030EF9B
:100C400049E755E40E94EC150E943215CB01089546
:100C50009BBD8ABD79BD68BD0895EF92FF920F9349
:100C60001F938C017B01CA010E941006F801918339
:100C70008083F701918380831F910F91FF90EF9004
:100C80000895CF92DF92EF92FF920F931F93DF931D
:100C9000CF9300D000D0CDB7DEB71A8219821C8264
:100CA0001B820E9483010E94E3050E948B058981BB
:100CB0009A819BBD8ABD8B819C8199BD88BD80E650
:100CC00090E00E945001A1E0CA2ED12CF3E0EF2E5B
:100CD000F12CEC0EFD1E8E010F5F1F4F0E949C0534
:100CE00070918A0150918B0160918C0140918D012E
:100CF00030918E0120918F0190919001809191010E
:100D00008823A9F4992399F4222389F4332379F4CD
:100D1000442369F4662359F4523048F4513011F4F5
:100D20007C3228F410927F0010927E0004C0D09292
:100D30007F00C0927E0080917E0090917F0001979D
:100D400009F0AAC08091B201883309F494C08933B4
:100D5000E0F4833309F476C0843350F4813309F42A
:100D600067C0823308F069C0803309F0B7CF5BC039
:100D7000853309F471C0853308F469C0863309F4FA
:100D800070C0873309F0AACF71C0873461F188340D
:100D900048F4823409F484C0863491F0893309F030
:100DA0009DCF6EC08C3499F08D3420F4893409F0D5
:100DB00095CF2CC0823571F0813709F08FCF65C097
:100DC00081E090E00E94F20581E090E06FC081E058
:100DD00090E068C081E090E00E94010680E090E031
:100DE0000E94F20565C081E090E00E94F20581E07A
:100DF00090E00E94010629813A818B819C8188556F
:100E000092403BBD2ABD99BD88BD68CF81E090E08E
:100E10000E94F20581E090E00E94010689819A819A
:100E20008855924047C0C801B70140E050E031C04A
:100E3000C801B7014AE050E02CC0C801B70144E145
:100E400050E027C0C801B7014EE150E022C0C80100
:100E5000B70148E250E01DC0C801B70142E350E0CD
:100E600018C0C801B7014CE350E013C0C801B70176
:100E700046E450E00EC0C801B70140E550E009C0AB
:100E8000C801B7014AE550E004C0C801B70144E613
:100E900050E00E942D060CC08091B201823489F48A
:100EA00080E090E00E94F20580E090E00E94010660
:100EB00089819A812B813C819BBD8ABD39BD28BD2A
:100EC0000DCFAC98AD98AA98AB9808CFEF92FF924F
:100ED0000F93DF93CF93CDB7DEB760970FB6F8943B
:100EE000DEBF0FBECDBFA82F002309F461C07E0175
:100EF0000894E11CF11C88E0F70111928A95E9F74A
:100F000029833A834B835C836D837E83AF83988789
:100F100080E2801BE82FFF27E7FDF09549815A8189
:100F20006B817C81181684F019861A861B861C86B4
:100F3000882799278E1B9F0B04C0440F551F661FDF
:100F4000771F8A95D2F728C0202F332727FD3095A9
:100F5000DB01CA01022E04C0880F991FAA1FBB1F04
:100F60000A94D2F789879A87AB87BC8704C07695A5
:100F7000679557954795EA95D2F78D819E81AF8108
:100F8000B88504C0880F991FAA1FBB1F2A95D2F7E6
:100F9000482B592B6A2B7B2B4D875E876F87788B6D
:100FA00029853A854B855C856D857E85AF859889D9
:100FB0008A2F60960FB6F894DEBF0FBECDBFCF91DB
:100FC000DF910F91FF90EF900895AEE5B0E0EBEE6A
:100FD000F7E00C94B716A8E04E010894811C911C10
:100FE000F4016A2E11926A94E9F729833A834B83BC
:100FF0005C836D837E838F839887CE010996FC0185
:101000001192AA95E9F7A986BA86CB86DC86ED8689
:10101000FE860F87188B29843A844B845C84ED8488
:10102000FE840F85188969807A808B809C806DA6EC
:101030007EA68FA698AA6D807E808F809884E1140A
:10104000F1040105110509F0B3C3621473048404AB
:10105000950408F03DC100E0201600E0300601E0F4
:10106000400600E0500688F41FEF211631044104C9
:10107000510439F030F048E0E42EF12C012D112D0F
:1010800018C0EE24FF24870114C020E0221620E0BF
:10109000320620E0420621E0520630F038E1E32E2D
:1010A000F12C012D112D05C020E1E22EF12C012D96
:1010B000112DD201C1010E2C04C0B695A7959795AC
:1010C00087950A94D2F78E579F4FDC012C9180E2CE
:1010D00090E0A0E0B0E08E199F09A00BB10B7C015D
:1010E0008D01E21AF10801091109E114F104010569
:1010F0001105A1F10E2C04C0220C331C441C551CFC
:101100000A94D2F7A40193010E2C04C0220F331FBE
:10111000441F551F0A94D2F780E290E08E199F0970
:101120006DA47EA48FA498A804C096948794779405
:1011300067948A95D2F7622A732A842A952AADA4E5
:10114000BEA4CFA4D8A804C0AA0CBB1CCC1CDD1C18
:10115000EA94D2F7ADA6BEA6CFA6D8AA6201EE2425
:10116000FF24CDAADEAAEFAAF8AE92018101207079
:10117000307009AF1AAF2BAF3CAFC401B301A70168
:1011800096010E9495167B018C01C401B3012DA923
:101190003EA94FA958AD0E949516C901DA013C013C
:1011A0004D01C401B30129AD3AAD4BAD5CAD0E9418
:1011B00062169B01AC018701FF24EE24ADA4BEA4FE
:1011C000CFA4D8A8C601AA27BB2757016801A82A1F
:1011D000B92ACA2ADB2AA216B306C406D506E0F449
:1011E00008946108710881089108A20CB31CC41C02
:1011F000D51CA214B304C404D50470F0A216B3061F
:10120000C406D50648F4089461087108810891085D
:10121000A20CB31CC41CD51CA21AB30AC40AD50A5A
:10122000C601B5012DA93EA94FA958AD0E9495163A
:101230007B018C01C601B5012DA93EA94FA958AD6E
:101240000E949516C901DA015C016D01C601B50164
:1012500029AD3AAD4BAD5CAD0E9462169B01AC016D
:101260008701FF24EE248DA59EA5AFA5B8A9A07087
:10127000B070E82AF92A0A2B1B2BE216F3060407A2
:101280001507C0F40894A108B108C108D108E20C00
:10129000F31C041D151DE214F3040405150550F09C
:1012A000E216F3060407150728F40894A108B1080C
:1012B000C108D108D3019927882786017501E82A3A
:1012C000F92A0A2B1B2BE9AAFAAA0BAB1CABCFC439
:1012D000211431044104510471F461E070E080E0B4
:1012E00090E020E030E040E050E00E949516C90117
:1012F000DA011C012D0100E0201600E0300601E0BB
:10130000400600E0500688F41FEF21163104410426
:10131000510431F028F048E050E060E070E017C080
:1013200040E050E060E070E012C020E0221620E0D3
:10133000320620E0420621E0520628F048E150E063
:1013400060E070E004C040E150E060E070E0D20195
:10135000C101042E04C0B695A795979587950A9468
:10136000D2F78E579F4FDC012C91E0E2EE2EF12C4C
:10137000012D112DD801C701841B950BA60BB70BAE
:10138000821B9109A109B1090097A105B10561F47A
:1013900064015301A218B308C408D50831E0632ED4
:1013A000712C812C912C1EC16F968FAF6F97082ED8
:1013B00004C0220C331C441C551C0A94D2F7EE2D99
:1013C000E81B640153010E2E04C0D694C794B79451
:1013D000A7940A94D2F7A40193016F960FAC6F976C
:1013E00004C0220F331F441F551F0A94D2F76DA467
:1013F0007EA48FA498A80E2E04C096948794779408
:1014000067940A94D2F784017301E22AF32A042B29
:10141000152BE9A6FAA60BA71CA73201882499244C
:10142000920181012070307021960CAF1DAF2EAF5C
:101430003FAF2197C601B501A40193010E94951603
:101440007B018C01C601B501A40193010E94951690
:10145000C901DA0125968CAF9DAFAEAFBFAF25971E
:10146000BC01CD0121962CAD3DAD4EAD5FAD2197B8
:101470000E9462169B01AC018701FF24EE24A9A4FF
:10148000BAA4CBA4DCA4C601AA27BB275C016D01CA
:10149000AE28BF28C02AD12AA216B306C406D50694
:1014A00060F525966CAD7DAD8EAD9FAD25976150F5
:1014B00070408040904025966CAF7DAF8EAF9FAF5F
:1014C0002597A20CB31CC41CD51CA214B304C404DD
:1014D000D50498F0A216B306C406D50670F4615080
:1014E00070408040904025966CAF7DAF8EAF9FAF2F
:1014F0002597A20CB31CC41CD51CA21AB30AC40A9B
:10150000D50AC601B501A40193010E9495167B017D
:101510008C01C601B501A40193010E949516C90171
:10152000DA013C014D01C401B30121962CAD3DAD62
:101530004EAD5FAD21970E9462169B01AC01870101
:10154000FF24EE2489A59AA5ABA5BCA5A070B07018
:1015500057016801A82AB92ACA2ADB2AA216B306AB
:10156000C406D506E0F40894610871088108910862
:10157000A20CB31CC41CD51CA214B304C404D5040F
:1015800070F0A216B306C406D50648F408946108A4
:10159000710881089108A20CB31CC41CD51C8DA530
:1015A0009EA5AFA5B8A96F960FAC6F9704C0880F22
:1015B000991FAA1FBB1F0A94D2F78DA79EA7AFA79A
:1015C000B8ABA21AB30AC40AD50A2596ECACFDAC96
:1015D0000EAD1FAD2597D70199278827682A792A4C
:1015E0008A2A9B2A82012227332729960CAF1DAF16
:1015F0002EAF3FAF2997A2019101407050702D96F8
:101600002CAF3DAF4EAF5FAF2D97C601B501299608
:101610002CAD3DAD4EAD5FAD29970E9495167B0177
:101620008C01C601B50129962CAD3DAD4EAD5FAD27
:1016300029970E949516C901DA0161968CAF9DAF7A
:10164000AEAFBFAF6197BC01CD012D962CAD3DADC6
:101650004EAD5FAD2D970E9462169B01AC018701D4
:10166000FF24EE24ADA4BEA4CFA4D8A8C601AA2707
:10167000BB2757016801A82AB92ACA2ADB2AA21661
:10168000B306C406D50660F561966CAD7DAD8EAD32
:101690009FAD6197615070408040904061966CAF03
:1016A0007DAF8EAF9FAF6197A20CB31CC41CD51C3D
:1016B000A214B304C404D50498F0A216B306C40659
:1016C000D50670F4615070408040904061966CAFD8
:1016D0007DAF8EAF9FAF6197A20CB31CC41CD51C0D
:1016E000A21AB30AC40AD50AC601B50129962CADBF
:1016F0003DAD4EAD5FAD29970E9495167B018C01E3
:10170000C601B50129962CAD3DAD4EAD5FAD299713
:101710000E949516C901DA015C016D01C601B5018F
:101720002D962CAD3DAD4EAD5FAD2D970E9462164E
:101730009B01AC018701FF24EE248DA59EA5AFA5DA
:10174000B8A9A070B070E82AF92A0A2B1B2BE21660
:10175000F30604071507C0F40894A108B108C108EE
:10176000D108E20CF31C041D151DE214F30404055A
:10177000150550F0E216F3060407150728F408943F
:10178000A108B108C108D1086196ECACFDAC0EAD62
:101790001FAD6197D7019927882796018501082BEE
:1017A000192B2A2B3B2B09AB1AAB2BAB3CAB62C2E0
:1017B0006E147F048006910608F451C220E0E21600
:1017C00020E0F20621E0020720E0120788F43FEF54
:1017D000E316F1040105110531F028F048E050E06E
:1017E00060E070E017C040E050E060E070E012C0E0
:1017F00040E0E41640E0F40640E0040741E014074E
:1018000028F048E150E060E070E004C040E150E0C2
:1018100060E070E0D801C701042E04C0B695A7951A
:10182000979587950A94D2F78E579F4FDC012C919C
:1018300030E2A32EB12CC12CD12CD601C501841BC2
:10184000950BA60BB70B821B9109A109B109009753
:10185000A105B10589F4E614F7040805190508F493
:10186000F2C16DA47EA48FA498A8621473048404AA
:10187000950408F0E8C1F3C16E968FAF6E97082EFD
:1018800004C0EE0CFF1C001F111F0A94D2F76A2D32
:10189000681BD201C101062E04C0B695A795979585
:1018A00087950A94D2F75C016D01AE28BF28C02A43
:1018B000D12AADA2BEA2CFA2D8A6720161016E96B6
:1018C0000FAC6E9704C0CC0CDD1CEE1CFF1C0A9400
:1018D000D2F7C9A2DAA2EBA2FCA264015301062E40
:1018E00004C0D694C794B794A7940A94D2F7D401AD
:1018F000C3016E960FAC6E9704C0880F991FAA1F84
:10190000BB1F0A94D2F7EDA4FEA40FA518A904C02A
:1019100016950795F794E7946A95D2F73701480131
:10192000682A792A8A2A9B2A6D8E7E8E8F8E98A2AB
:10193000EDA0FEA00FA118A53801882499249801D4
:1019400087012070307065960CAF1DAF2EAF3FAF92
:101950006597C601B501A40193010E9495167B010C
:101960008C01C601B501A40193010E949516C9011D
:10197000DA011C012D01C201B10165962CAD3DAD0E
:101980004EAD5FAD65970E9462169B01AC01870169
:10199000FF24EE24AD8CBE8CCF8CD8A0C601AA2724
:1019A000BB2757016801A82AB92ACA2ADB2AA2162E
:1019B000B306C406D50600F508942108310841088D
:1019C0005108EDA0FEA00FA118A5AE0CBF1CC01EB3
:1019D000D11EAE14BF04C006D10670F0A216B30625
:1019E000C406D50648F40894210831084108510876
:1019F000AE0CBF1CC01ED11EA21AB30AC40AD50A5F
:101A0000C601B501A40193010E9495167B018C01CA
:101A1000C601B501A40193010E949516C901DA011E
:101A20003C014D01C401B30165962CAD3DAD4EADF9
:101A30005FAD65970E9462169B01AC018701FF2490
:101A4000EE248D8D9E8DAF8DB8A1A070B070570122
:101A50006801A82AB92ACA2ADB2AA216B306C40634
:101A6000D50600F5089461087108810891086DA1F8
:101A70007EA18FA198A5A60EB71EC81ED91EA616B8
:101A8000B706C806D90670F0A216B306C406D50676
:101A900048F408946108710881089108A60EB71EE1
:101AA000C81ED91ED601C501821B930BA40BB50B12
:101AB000898F9A8FAB8FBC8FD101992788276401BA
:101AC0005301A82AB92ACA2ADB2AA9AABAAACBAAE8
:101AD000DCAA860175012FEF3FEF40E050E0E222E3
:101AE000F32204231523A601662777276D964CAFB2
:101AF0005DAF6EAF7FAF6D97A9A0BAA0CBA0DCA001
:101B00006FEF7FEF80E090E0A622B722C822D922B3
:101B100089A19AA1ABA1BCA11D0144245524C801EF
:101B2000B701A60195010E94621669966CAF7DAF60
:101B30008EAF9FAF6997C801B701A20191010E94C2
:101B400062163B014C016D966CAD7DAD8EAD9FADC7
:101B50006D97A60195010E9462167B018C016D961E
:101B60006CAD7DAD8EAD9FAD6D97A20191010E94D0
:101B700062165B016C01A8019701260D371D481DF7
:101B8000591D69966CAC7DAC8EAC9FAC6997C40155
:101B9000AA27BB27280F391F4A1F5B1F2E153F0599
:101BA0004007510748F4E12CF12C61E0062F112D7C
:101BB000AE0CBF1CC01ED11ECA01AA27BB27BC0188
:101BC000CD016A0D7B1D8C1D9D1D698C7A8C8B8CC3
:101BD0009C8C661677068806990640F1661577058F
:101BE0008805990509F043C0D90199278827699686
:101BF0002CAD3DAD4EAD5FAD699740705070820F1A
:101C0000931FA41FB51F2DA53EA54FA558A96E96DD
:101C10000FAC6E9704C0220F331F441F551F0A9448
:101C2000D2F7281739074A075B0708F509A91AA947
:101C30002BA93CA9015010402040304009AB1AAB01
:101C40002BAB3CAB14C066247724430121E030E089
:101C500040E050E029AB3AAB4BAB5CAB0BC0662429
:101C60007724430119AA1AAA1BAA1CAA03C0662436
:101C700077244301FE01719688E0DF011D928A9569
:101C8000E9F7A9A8BAA8CBA8DCA8A98ABA8ACB8AFE
:101C9000DC8A6D8A7E8A8F8A988E29A93A894B8937
:101CA0005C89662D7E898F89988DC25ADF4FE2E16B
:101CB0000C94D316ABE5B0E0E0E6FEE00C94B7166A
:101CC000A8E04E010894811C911CF4016A2E119227
:101CD0006A94E9F729833A834B835C836D837E831F
:101CE0008F839887CE010996FC011192AA95E9F796
:101CF000A986BA86CB86DC86ED86FE860F87188B92
:101D000029843A844B845C84AD84BE84CF84D88893
:101D100029813A814B815C8169962FAF69976A96D8
:101D20003FAF6A976B964FAF6B976C965FAF6C97B0
:101D30006C966CAC7DAC8EAC9FAC6C9769AA7AAAA1
:101D40008BAA9CAA6D817E818F8198853B014C0175
:101D50006DAA7EAA8FAA98AEA114B104C104D104C1
:101D600009F004C3621473048404950408F000C1EC
:101D700000E0201600E0300601E0400600E05006DA
:101D800088F41FEF211631044104510439F030F07A
:101D900088E0E82EF12C012D112D18C0EE24FF242F
:101DA000870114C040E0241640E0340640E04406B9
:101DB00041E0540630F0B8E1EB2EF12C012D112D4D
:101DC00005C0A0E1EA2EF12C012D112DD201C10197
:101DD0000E2C04C0B695A795979587950A94D2F7CF
:101DE0008E579F4FDC012C9180E290E0A0E0B0E0A4
:101DF0008E199F09A00BB10B5C016D01A21AB108ED
:101E0000C108D108A9AEBAAECBAEDCAEA114B10404
:101E1000C104D10409F43FC069AD062E04C0220CF0
:101E2000331C441C551C0A94D2F7A4019301062EBE
:101E300004C0220F331F441F551F0A94D2F780E2BB
:101E400090E08A199B096C96CCACDDACEEACFFAC93
:101E50006C9704C0F694E794D794C7948A95D2F708
:101E600087017601E22AF32A042B152BEDAAFEAA9C
:101E70000FAB18AF6C968CAD9DADAEADBFAD6C9792
:101E800004C0880F991FAA1FBB1F6A95D2F789ABA0
:101E90009AABABABBCAB320188249924B201A1014F
:101EA0006070707021964CAF5DAF6EAF7FAF2197C1
:101EB0006DA97EA98FA998ADA40193010E949516E2
:101EC0007B018C016DA97EA98FA998ADA401930116
:101ED0000E949516CA01B90121962CAD3DAD4EADBB
:101EE0005FAD21970E9462169B01AC018701FF2420
:101EF000EE24A9A8BAA8CBA8DCA8C601AA27BB27AC
:101F000057016801A82AB92ACA2ADB2AA216B306F1
:101F1000C406D50690F4A20CB31CC41CD51CA21494
:101F2000B304C404D50448F0A216B306C406D5060B
:101F300020F4A20CB31CC41CD51CA21AB30AC40AF8
:101F4000D50AC601B501A40193010E9495167B0133
:101F50008C01C601B501A40193010E949516CA0126
:101F6000B90121962CAD3DAD4EAD5FAD2197BAC103
:101F7000211431044104510471F461E070E080E007
:101F800090E020E030E040E050E00E949516C9016A
:101F9000DA011C012D0100E0201600E0300601E00E
:101FA000400600E0500688F41FEF2116310441047A
:101FB000510439F030F068E0E62EF12C012D112D9E
:101FC00018C0EE24FF24870114C040E0241640E02E
:101FD000340640E0440641E0540630F058E1E52E76
:101FE000F12C012D112D05C040E1E42EF12C012D25
:101FF000112DD201C1010E2C04C0B695A79597955D
:1020000087950A94D2F78E579F4FDC012C9130E2CE
:10201000A32EB12CC12CD12CD601C5018E199F093C
:10202000A00BB10B7C018D01E21AF1080109110925
:10203000E9AEFAAE0BAF1CAFE114F10401051105D6
:1020400039F464015301A218B308C408D508E2C0EA
:10205000F9AC6896FFAE68970F2C04C0220C331CB5
:10206000441C551C0A94D2F78A2D8F196401530120
:10207000082E04C0D694C794B794A7940A94D2F7B4
:10208000A401930104C0220F331F441F551FFA946B
:10209000D2F76C966CAC7DAC8EAC9FAC6C9704C0E8
:1020A00096948794779467948A95D2F78401730104
:1020B000E22AF32A042B152BEDA6FEA60FA718ABD8
:1020C000320188249924B201A101607070702596B4
:1020D0004CAF5DAF6EAF7FAF2597C601B501A401D0
:1020E00093010E9495167B018C01C601B501A401E4
:1020F00093010E949516CA01B90125962CAD3DADFC
:102100004EAD5FAD25970E9462169B01AC01870121
:10211000FF24EE24ADA4BEA4CFA4D8A8C601AA274C
:10212000BB275C016D01AE28BF28C02AD12AA216A8
:10213000B306C406D50690F4A20CB31CC41CD51C6F
:10214000A214B304C404D50448F0A216B306C4060E
:10215000D50620F4A20CB31CC41CD51CA21AB30AC9
:10216000C40AD50AC601B501A40193010E949516BF
:102170007B018C01C601B501A40193010E94951653
:10218000CA01B90125962CAD3DAD4EAD5FAD259789
:102190000E9462169B01AC018701FF24EE248DA5ED
:1021A0009EA5AFA5B8A9A070B07057016801A82A74
:1021B000B92ACA2ADB2AA216B306C406D50690F4A9
:1021C000A20CB31CC41CD51CA214B304C404D504B3
:1021D00048F0A216B306C406D50620F4A20CB31C20
:1021E000C41CD51C6C96ECACFDAC0EAD1FAD6C9751
:1021F00068960FAC689704C0EE0CFF1C001F111FFF
:102200000A94D2F7E9AAFAAA0BAB1CABA21AB30A3A
:10221000C40AD50A320188249924B201A101607050
:10222000707029964CAF5DAF6EAF7FAF2997C60136
:10223000B501A40193010E9495167B018C01C60192
:10224000B501A40193010E949516CA01B90129960E
:102250002CAD3DAD4EAD5FAD29970E9462169B013E
:10226000AC018701FF24EE24A9A8BAA8CBA8DCA85A
:10227000C601AA27BB2757016801A82AB92ACA2A7A
:10228000DB2AA216B306C406D50690F4A20CB31C32
:10229000C41CD51CA214B304C404D50448F0A2166F
:1022A000B306C406D50620F4A20CB31CC41CD51C6E
:1022B000A21AB30AC40AD50AC601B501A401930142
:1022C0000E9495167B018C01C601B501A401930102
:1022D0000E949516CA01B90129962CAD3DAD4EADAF
:1022E0005FAD29970E9462169B01AC018701FF2414
:1022F000EE2489A99AA9ABA9BCA9A070B070E82A5C
:10230000F92A0A2B1B2BE216F3060407150790F493
:10231000E20CF31C041D151DE214F304040515055D
:1023200048F0E216F3060407150720F4E20CF31C4C
:10233000041D151DE21AF30A040B150BD801C70181
:1023400009AC04C0B695A795979587950A94D2F7DE
:10235000898B9A8BAB8BBC8B1D8A1E8A1F8A188E29
:10236000282F3A894B895C896D890CC36A147B04D8
:102370008C049D0408F409C300E0A01600E0B00638
:1023800001E0C00600E0D00688F41FEFA116B104FA
:10239000C104D10439F030F028E0E22EF12C012DF7
:1023A000112D18C0EE24FF24870114C040E0A416AC
:1023B00040E0B40640E0C40641E0D40630F098E1C5
:1023C000E92EF12C012D112D05C080E1E82EF12C14
:1023D000012D112DD601C5010E2C04C0B695A7956F
:1023E000979587950A94D2F78E579F4FDC012C91D1
:1023F00080E290E0A0E0B0E08E199F09A00BB10B45
:10240000821B9109A109B1090097A105B10509F045
:102410004FC0A614B704C804D90458F06C96ECACAD
:10242000FDAC0EAD1FAD6C97E214F3040405150569
:1024300068F16C96ECACFDAC0EAD1FAD6C97E2187C
:10244000F30804091509A40193012A193B094C0951
:102450005D09AA24BB2465016C966CAD7DAD8EAD83
:102460009FAD6C976E157F058007910728F4B1E04A
:10247000AB2EB12CC12CD12CDA01C9018A199B09D0
:10248000AC09BD098DAB9EABAFABB8AFE98AFA8A98
:102490000B8B1C8B6DA87EA88FA898AC6D8A7E8A4A
:1024A0008F8A988E2E2D3A894B895C896DA96AC2D4
:1024B00067968FAF6797A6019501082E04C0220F7B
:1024C000331F441F551F0A94D2F7A0E2AA2EA81A60
:1024D0006696AFAE6697D201C10104C0B695A795C6
:1024E00097958795AA94D2F76C017D01C22AD32AC9
:1024F000E42AF52AC9A6DAA6EBA6FCA68201710198
:1025000067960FAC679704C0EE0CFF1C001F111FED
:102510000A94D2F7EDA2FEA20FA318A764015301FB
:1025200066960FAC669704C0D694C794B794A794E8
:102530000A94D2F7A401930167960FAC679704C081
:10254000220F331F441F551F0A94D2F76C968CAD8F
:102550009DADAEADBFAD6C9766960FAC669704C0EF
:10256000B695A795979587950A94D2F73C014D01AA
:10257000622A732A842A952A69A27AA28BA29CA233
:102580006C96ECACFDAC0EAD1FAD6C9767960FACC6
:10259000679704C0EE0CFF1C001F111F0A94D2F7AE
:1025A000ED8EFE8E0F8F18A349A55AA56BA57CA5AD
:1025B0003B0188249924607070702D964CAF5DAFFC
:1025C0006EAF7FAF2D97C601B501A40193010E94A4
:1025D00095167B018C01C601B501A40193010E94EF
:1025E0009516C901DA011C012D01C201B1012D9618
:1025F0002CAD3DAD4EAD5FAD2D970E9462169B0197
:10260000AC018701FF24EE24A9A0BAA0CBA0DCA0D6
:10261000C601AA27BB2757016801A82AB92ACA2AD6
:10262000DB2AA216B306C406D50600F508942108D5
:10263000310841085108E9A4FAA40BA51CA5AE0C69
:10264000BF1CC01ED11EAE14BF04C006D10670F060
:10265000A216B306C406D50648F40894210831082A
:1026600041085108AE0CBF1CC01ED11EA21AB30AED
:10267000C40AD50AC601B501A40193010E949516AA
:102680007B018C01C601B501A40193010E9495163E
:10269000C901DA013C014D01C401B3012D962CADF5
:1026A0003DAD4EAD5FAD2D970E9462169B01AC0112
:1026B0008701FF24EE2489A19AA1ABA1BCA1A0703F
:1026C000B07057016801A82AB92ACA2ADB2AA216C3
:1026D000B306C406D50600F50894610871088108A0
:1026E000910869A57AA58BA59CA5A60EB71EC81E44
:1026F000D91EA616B706C806D90670F0A216B306EC
:10270000C406D50648F40894610871088108910848
:10271000A60EB71EC81ED91ED601C501821B930B7B
:10272000A40BB50B898F9A8FAB8FBC8FD1019927E2
:10273000882784017301E82AF92A0A2B1B2B4FEF03
:10274000A42E4FEFB42EC12CD12CAE20BF20C0221E
:10275000D1227801002711276DA07EA08FA098A418
:102760004FEF5FEF60E070E06422752286229722CF
:102770008DA19EA1AFA1B8A5BD0188279927659617
:102780006CAF7DAF8EAF9FAF6597C601B501A40159
:1027900093010E94621661966CAF7DAF8EAF9FAFC2
:1027A0006197C601B50165962CAD3DAD4EAD5FADEF
:1027B00065970E9462161B012C01C801B701A40194
:1027C00093010E9462165B016C01C801B701659616
:1027D0002CAD3DAD4EAD5FAD65970E9462167B019D
:1027E0008C01A6019501220D331D441D551D6196D6
:1027F0006CAC7DAC8EAC9FAC6197C401AA27BB27A3
:10280000280F391F4A1F5B1F2A153B054C055D0524
:1028100048F4812C912CE1E0AE2EB12CE80CF91C8F
:102820000A1D1B1DCA01AA27BB2757016801A80E54
:10283000B91ECA1EDB1EA9013327222761968CAD63
:102840009DADAEADBFAD6197A070B070280F391FC0
:102850004A1F5B1FE98CFA8C0B8D1C8DEA14FB045C
:102860000C051D0570F0AE14BF04C006D10669F555
:102870006D8D7E8D8F8D98A16217730784079507E4
:1028800020F5DA01C9016DA07EA08FA098A4861959
:102890009709A809B909E9A4FAA40BA51CA5AE18C3
:1028A000BF08C00AD10AEE24FF2487012817390780
:1028B0004A075B0728F421E0E22EF12C012D112DAF
:1028C000AE18BF08C00AD10A02C0DA01C9016D8C76
:1028D0007E8C8F8C98A0681A790A8A0A9B0A498D87
:1028E0005A8D6B8D7C8D4A195B096C097D095A01E3
:1028F0006B012224332421016D8D7E8D8F8D98A153
:10290000661577058805990528F481E0282E312C75
:10291000412C512C86017501E218F30804091509B0
:10292000A801970166960FAC669704C0220F331F6B
:10293000441F551F0A94D2F7D401C30167960FAC08
:10294000679704C0B695A795979587950A94D2F78F
:10295000282B392B4A2B5B2B298B3A8B4B8B5C8B8F
:1029600067960FAC679704C016950795F794E794A0
:102970000A94D2F7ED8AFE8A0F8B188F3A894B8919
:102980005C896E2D7E898F89988DC55ADF4FE2E173
:102990000C94D3160CD0E6C0DED040F0D5D030F089
:1029A00021F45F3F19F0C7C0511110C1CAC0EBD06C
:1029B00098F39923C9F35523B1F3951B550BBB2706
:1029C000AA2762177307840738F09F5F5F4F220FB3
:1029D000331F441FAA1FA9F333D00E2E3AF0E0E8AC
:1029E00030D091505040E695001CCAF729D0FE2FF8
:1029F00027D0660F771F881FBB1F2617370748078A
:102A0000AB07B0E809F0BB0B802DBF01FF2793583F
:102A10005F4F2AF09E3F510568F08DC0D7C05F3FE1
:102A2000ECF3983EDCF3869577956795B795F79527
:102A30009F5FC9F7880F911D9695879597F908951F
:102A4000E1E0660F771F881FBB1F621773078407BB
:102A5000BA0720F0621B730B840BBA0BEE1F88F7CA
:102A6000E095089598D088F09F5790F0B92F992756
:102A7000B751A0F0D1F0660F771F881F991F1AF089
:102A8000BA95C9F712C0B13081F09FD0B1E0089576
:102A90009CC0672F782F8827B85F39F0B93FCCF3F7
:102AA000869577956795B395D9F73EF4909580957F
:102AB000709561957F4F8F4F9F4F0895E89409C09F
:102AC00097FB3EF490958095709561957F4F8F4F61
:102AD0009F4F9923A9F0F92F96E9BB279395F69577
:102AE000879577956795B795F111F8CFFAF4BB0FF5
:102AF00011F460FF1BC06F5F7F4F8F4F9F4F16C059
:102B0000882311F096E911C0772321F09EE8872FE2
:102B1000762F05C0662371F096E8862F70E060E09E
:102B20002AF09A95660F771F881FDAF7880F969517
:102B3000879597F9089597F99F6780E870E060E0BE
:102B400008959FEF80EC089500240A941616170646
:102B500018060906089500240A941216130614068E
:102B600005060895092E0394000C11F4882352F0F1
:102B7000BB0F40F4BF2B11F460FF04C06F5F7F4FA9
:102B80008F4F9F4F089557FD9058440F551F59F090
:102B90005F3F71F04795880F97FB991F61F09F3F4A
:102BA00079F087950895121613061406551FF2CF73
:102BB0004695F1DF08C0161617061806991FF1CFC3
:102BC00086957105610508940895E894BB276627EA
:102BD0007727CB0197F908950BD0C4CFB5DF28F044
:102BE000BADF18F0952309F0A6CFABCF1124EECFB2
:102BF000CADFA0F3959FD1F3950F50E0551F629F58
:102C0000F001729FBB27F00DB11D639FAA27F00D45
:102C1000B11DAA1F649F6627B00DA11D661F829F6C
:102C20002227B00DA11D621F739FB00DA11D621F51
:102C3000839FA00D611D221F749F3327A00D611D6E
:102C4000231F849F600D211D822F762F6A2F112450
:102C50009F5750408AF0E1F088234AF0EE0FFF1FA3
:102C6000BB1F661F771F881F91505040A9F79E3FDA
:102C7000510570F060CFAACF5F3FECF3983EDCF3D4
:102C8000869577956795B795F795E7959F5FC1F717
:102C9000FE2B880F911D9695879597F9089597FBC0
:102CA000092E07260AD077FD04D02BD006D00020AD
:102CB0001AF4709561957F4F0895F6F79095819578
:102CC0009F4F0895629FD001739FF001829FE00D96
:102CD000F11D649FE00DF11D929FF00D839FF00D9B
:102CE000749FF00D659FF00D9927729FB00DE11D47
:102CF000F91F639FB00DE11DF91FBD01CF01112424
:102D00000895AA1BBB1B51E107C0AA1FBB1FA61732
:102D1000B70710F0A61BB70B881F991F5A95A9F784
:102D200080959095BC01CD010895A1E21A2EAA1BB1
:102D3000BB1BFD010DC0AA1FBB1FEE1FFF1FA2176B
:102D4000B307E407F50720F0A21BB30BE40BF50B68
:102D5000661F771F881F991F1A9469F760957095F1
:102D6000809590959B01AC01BD01CF0108952F92F4
:102D70003F924F925F926F927F928F929F92AF920B
:102D8000BF92CF92DF92EF92FF920F931F93CF9358
:102D9000DF93CDB7DEB7CA1BDB0B0FB6F894DEBFEF
:102DA0000FBECDBF09942A88398848885F846E8415
:102DB0007D848C849B84AA84B984C884DF80EE805F
:102DC000FD800C811B81AA81B981CE0FD11D0FB668
:102DD000F894DEBF0FBECDBFED010895F894FFCF8C
:102DE0000A0D2043686172616374657220666F72B8
:102DF00020706572666F726D616E63653A000100E6
:102E00000100000102020303030304040404040498
:102E10000404050505050505050505050505050564
:102E20000505060606060606060606060606060644
:102E30000606060606060606060606060606060632
:102E40000606070707070707070707070707070714
:102E50000707070707070707070707070707070702
:102E600007070707070707070707070707070707F2
:102E700007070707070707070707070707070707E2
:102E800007070808080808080808080808080808C4
:102E900008080808080808080808080808080808B2
:102EA00008080808080808080808080808080808A2
:102EB0000808080808080808080808080808080892
:102EC0000808080808080808080808080808080882
:102ED0000808080808080808080808080808080872
:102EE0000808080808080808080808080808080862
:102EF0000808080808080808080808080808080852
:022F00000808BF
:00000001FF
