S01700004763634170706C69636174696F6E332E7372656359
S113000012C02CC02BC02AC029C028C027C026C0BB
S113001025C024C023C045C072C020C01FC01EC05C
S11300201DC01CC01BC011241FBECFE5D4E0DEBF21
S1130030CDBF10E0A0E6B0E0EEECF1E002C0059028
S11300400D92A836B107D9F710E0A8E6B0E001C0D8
S11300501D92AD3AB107E1F702D0B7C0D1CFEF920C
S1130060FF920F931F93CF93DF9380E090E071D0C2
S113007088EA91E60197F1F7789400E610E00F2EF4
S1130080F8E8EF2EF3E1FF2EF02DC9E1D0E0C8012E
S11300908ED09701CE010197F1F721503040D1F76E
S11300A0F6CF1F920F920FB60F9211242F933F9306
S11300B08F939F93EF93FF932BB13CB18091690091
S11300C08F5F982F9F7180916800981711F482E0D8
S11300D009C0822F887190936900ECE8F0E0E90F81
S11300E0F11D30838093AC00FF91EF919F918F912C
S11300F03F912F910F900FBE0F901F9018951F9254
S11301000F920FB60F9211248F939F93EF93FF9347
S113011090916A0080916B00981769F080916B0050
S11301208F5F8F7180936B00ECE6F0E0E80FF11DB8
S113013080818CB905C0EAE2F0E080818F7D808304
S1130140FF91EF919F918F910F900FBE0F901F9091
S113015018959C0110926A0010926B00109269002D
S11301601092680099231CF482E08BB93F77E0E495
S1130170F0E0308329B988E98AB986E88083089554
S1130180282F80916A008F5F982F9F7180916B0058
S11301909817E1F3ECE6F0E0E90FF11D208390936A
S11301A06A00EAE2F0E08081806280830895CF9360
S11301B0DF93EC018881882329F02196E1DF88818F
S11101C08823D9F7DF91CF910895F894FFCFEB
S10B01CE48656C6C6F0A000027
S9030000FC
