:100000000C9434000C9451000C9451000C94510049
:100010000C9451000C9451000C9451000C9451001C
:100020000C9451000C9451000C9451000C946700F6
:100030000C9451000C9451000C9451000C945100FC
:100040000C9451000C9451000C9451000C945100EC
:100050000C9451000C9451000C9451000C945100DC
:100060000C9451000C94510011241FBECFEFD8E026
:10007000DEBFCDBF11E0A0E0B1E0E6EFF0E002C0EE
:1000800005900D92A030B107D9F711E0A0E0B1E0E2
:1000900001C01D92A030B107E1F70E9453000C94FB
:1000A00079000C94000081E084B9E1E8F0E088E098
:1000B00080838BE49CE4909389008093880082E0A5
:1000C00080936F007894808185608083FFCF1F923A
:1000D0000F920FB60F9211248F939F9395B181E0E9
:1000E000892785B99F918F910F900FBE0F901F9018
:0600F0001895F894FFCF03
:00000001FF
