:100000000C9441000C945E000C945E000C945E0015
:100010000C945E000C945E000C945E000C945E00E8
:100020000C945E000C9421020C945E000C945E0013
:100030000C945E000C945E000C945E000C945E00C8
:100040000C945E000C945E000C945E000C945E00B8
:100050000C945E00084AD73B3BCE016E84BCBFFDCA
:10006000C12F3D6C74319ABD56833DDA3D00C77F88
:1000700011BED9E4BB4C3E916BAAAABE0000008021
:100080003F0011241FBECFE5D8E0DEBFCDBF10E09A
:10009000A0E6B0E0E6E9FFE002C005900D92A43BC7
:1000A000B107D9F720E0A4EBB0E001C01D92A93C54
:1000B000B207E1F70E94CC030C94C9070C9400002E
:1000C00010BC89E189B988E98AB986E880BD0895BC
:1000D0005F9BFECF8CB108955D9BFECF8CB90895D8
:1000E000EF92FF920F931F93CF93DF93CDB7DEB7BD
:1000F0002A970FB6F894DEBF0FBECDBF009729F444
:100100002CC0101611069CF028C0FE01319600E0AC
:1001100010E02AE030E0B9010E9436078193919304
:10012000862F972F0F5F1F4F0097A9F7EACF78010F
:10013000EE0CFF1C81E090E08C0F9D1FE80EF91E75
:100140000150110992E0E91AF108F7018081805D00
:100150000E946C000115110599F72A960FB6F894C4
:10016000DEBF0FBECDBFDF91CF911F910F91FF90EA
:10017000EF9008952F923F924F925F926F927F92ED
:100180008F929F92AF92BF92CF92DF92EF92FF92A7
:100190000F931F93CF93DF93CDB7DEB7C455D1092B
:1001A0000FB6F894DEBF0FBECDBF62962FAF629739
:1001B00063963FAF639764964FAF649765965FAF62
:1001C0006597562E472E382E292EA0E00E94A907AB
:1001D00031F479C0161417040CF45AC074C0CE015F
:1001E00001964C01612C712C0F2EFAE0AF2EF02DF0
:1001F000B12CC12CD12CE12CF12C00E010E0629646
:100200002FAD629763963FAD639764964FAD649749
:1002100065965FAD6597652D742D832D922D0E9497
:100220004A07F401208331834283538364837583B7
:1002300086839783F8E08F0E911C62962FAD6297AC
:1002400063963FAD639764964FAD649765965FADD7
:100250006597652D742D832D922D0E944C07629613
:100260002FAF629763963FAF639764964FAF6497E3
:1002700065965FAF6597562E472E382E292EEFEFE5
:100280006E1A7E0AA0E00E94A90709F0ADCFA2CFA6
:100290004301880C991C880C991C880C991C81E0DE
:1002A00090E08C0F9D1F880E991E91E0691A7108CD
:1002B000E8E08E1A9108F4018081805D0E946C0054
:1002C0006114710491F7CC5ADF4F0FB6F894DEBF7A
:1002D0000FBECDBFDF91CF911F910F91FF90EF9097
:1002E000DF90CF90BF90AF909F908F907F906F9056
:1002F0005F904F903F902F900895CF93DF93EC0144
:100300008881882331F021960E946C0089918111A7
:10031000FBCFDF91CF9108950E943B048AE10E94B8
:100320003F048BE00E94660481E00E9466040E9404
:1003300060048AE10E943F0489E00E9466048DE126
:100340000E9466040E94600408958AE10E943F04AE
:1003500080E00E9466040E9460048BE10E945D04BC
:100360000E94730490E09093C8008093C7000E949D
:1003700073042091C7003091C800382B3093C80017
:100380002093C7000E94730490E09093C60080936E
:10039000C5000E9473042091C5003091C600382B1F
:1003A0003093C6002093C5000E94730490E09093A0
:1003B000C4008093C3000E947A042091C30030914E
:1003C000C400382B3093C4002093C3000E94600403
:1003D0000895CF92DF92EF92FF926091C7007091E3
:1003E000C800072E000C880B990B0E940A066B01AF
:1003F0007C016091C5007091C600072E000C880B2F
:10040000990B0E940A06A70196010E94010520E0AF
:1004100030E044E353E40E94C5062BED3FE049E49D
:1004200050E40E94600520E030E044E353E40E9481
:1004300082040E94D205CB01FF90EF90DF90CF9015
:1004400008951F920F920FB60F9211248F939F93CE
:100450008091C1009091C20001969093C200809358
:10046000C1009F918F910F900FBE0F901F90189514
:100470008FEF87BB80E482BB84E089BF1FBC0895F7
:100480001BBA18BA08954F925F926F927F929F9213
:10049000AF92BF92CF92DF92EF92FF920F931F9392
:1004A000CF93DF938C0180E690E00E947D018AE08B
:1004B0000E946C001092B9001092B8001092BC001B
:1004C0001092BD001092BE001092BF006801012E74
:1004D000000CEE08FF08FF200CF45BC0CAE6D4E075
:1004E0000F2EF1E29F2EF02D0F2EF8EAAF2EF02DF9
:1004F0006894BB24B6F81092C0008091B800909127
:10050000B90001969093B9008093B800BE010E9493
:1005100036077093BB006093BA00969EC001979E09
:10052000900D1124092E000CAA0BBB0B8093BC006C
:100530009093BD00A093BE00B093BF00ABBAB8BA11
:100540008091BC009091BD00A091BE00B091BF0011
:100550002C013D01770C4408542C3201282F392FEF
:100560004A2F5B2F642D742D842D942D0E94BA0088
:100570008AE00E946C008091BC009091BD00A09127
:10058000BE00B091BF00C816D906EA06FB060CF003
:10059000B2CF88E690E00E947D01C8010E94700001
:1005A00082E790E00E947D018AE00E946C000E9438
:1005B0004002DF91CF911F910F91FF90EF90DF905C
:1005C000CF90BF90AF909F907F906F905F904F9033
:1005D000089588EC8BBB80E888BB089580E38BBBD3
:1005E00082E488BB0895CF93DF93EC0118161906B7
:1005F0000CF069C00E94A5010E94E9019093B70028
:100600008093B60085E790E00E947D018091B6005E
:100610009091B7000E9470008AE00E946C00809167
:10062000B6009091B7009E01280F391F3093B50096
:100630002093B400293641E0340754F02856314065
:100640003093B5002093B4008217930729F415C0A6
:100650002817390794F422C00E94E9020E94A501DC
:100660000E94E9019093B7008093B6002091B400F6
:100670003091B5002817390779F70E94E9020E94E6
:10068000A5010E94E9019093B7008093B6002091E4
:10069000B4003091B500281739077CF7821793070B
:1006A00069F483E890E00E947D018091B60090910A
:1006B000B7000E9470008AE00E946C001092B500A2
:1006C0001092B40066C00E94A5010E94E9019093B7
:1006D000B7008093B6008FE890E00E947D01809182
:1006E000B6009091B7000E9470008AE00E946C00F2
:1006F0008091B6009091B7009E01280F391F30936A
:10070000B5002093B400332354F428593E4F30935E
:10071000B5002093B4008217930729F415C08217FF
:10072000930794F422C00E94EE020E94A5010E9449
:10073000E9019093B7008093B6002091B400309106
:10074000B5002817390779F70E94EE020E94A5012B
:100750000E94E9019093B7008093B6002091B40005
:100760003091B500821793077CF78217930769F4DD
:1007700083E890E00E947D018091B6009091B700DF
:100780000E9470008AE00E946C001092B5001092E6
:10079000B400DF91CF91089588EF8ABB1BBA89EC32
:1007A00087BB18BA80E281BB80E182BB8C980E9433
:1007B00060000E9438020E948C0180E884BF84BFE0
:1007C0000E946800823391F018F4813331F050C0F8
:1007D000833349F1843381F14BC080B380710E942F
:1007E0006C0082EA90E00E947D0142C086E990E0C0
:1007F0000E94430286EA9FEF0E94F3028BE490E09E
:100800000E94430284EB90E00E94F30282E390E0B6
:100810000E9443028AE590E00E94F30286E990E09C
:100820000E94430225C086EA9FEF0E94F3028CE4F7
:100830009FEF0E94F3021CC086E990E00E944302F1
:1008400086EA9FEF0E94F30282E390E00E94430257
:1008500084EB90E00E94F30282E390E00E94430266
:100860008AE590E00E94F30286E990E00E9443024C
:100870000E944002A5CF11B888E480B9089594EA97
:1008800096BF06B607FEFDCF91B1987F983011F064
:10089000903179F483B984E886BF06B607FEFDCFB0
:1008A00091B1987F983139F081E0903429F480E05B
:1008B000089581E0089580E008950E943F0408951E
:1008C00084E986BF06B604FCFDCF089583B984E8A9
:1008D00086BF06B607FEFDCF91B1987F81E09832C2
:1008E00009F480E0089584EC86BF06B607FEFDCFCC
:1008F00083B1089584E886BF06B607FEFDCF83B1B5
:1009000008955058BB27AA270E9499040C94830687
:100910000E94750638F00E947C0620F039F49F3F53
:1009200019F426F40C944B060EF4E095E7FB0C94B6
:100930004506E92F0E94940658F3BA176207730719
:100940008407950720F079F4A6F50C94B6060EF40A
:10095000E0950B2EBA2FA02D0B01B90190010C01CF
:10096000CA01A0011124FF27591B99F0593F50F4E7
:10097000503E68F11A16F040A22F232F342F44273F
:10098000585FF3CF469537952795A795F040539537
:10099000C9F77EF41F16BA0B620B730B840BBAF007
:1009A0009150A1F0FF0FBB1F661F771F881FC2F772
:1009B0000EC0BA0F621F731F841F48F48795779586
:1009C0006795B795F7959E3F08F0B0CF9395880F40
:1009D00008F09927EE0F9795879508950E94750660
:1009E00060F080E891E009F49EEF0E947C0628F018
:1009F00040E851E071F45EEF0CC00C944B060C948F
:100A0000B606E92FE0780E94940640F3092E052AE5
:100A1000B1F3261737074807590738F00E2E07F8A5
:100A2000E02569F0E025E0640AC0EF6307F8009470
:100A300007FADB01B9019D01DC01CA01AD01EF93A9
:100A40000E9477050E9483060E9431055F9155231D
:100A500039F02BED3FE049E450FD49EC0C94820461
:100A60000895DF93DD27B92FBF7740E85FE31616BF
:100A7000170648075B0718F4D92F0E94BD069F93FD
:100A80008F937F936F930E943207E4E5F0E00E941A
:100A90004E060E9483062F913F914F915F910E94D5
:100AA000D806DD2351F09058A2EA2AED3FE049EC48
:100AB0005FE3D0785D270E949904DF910C94830650
:100AC0000E9474050C9483060E947C0658F00E94D4
:100AD000750640F029F45F3F29F00C94450651114A
:100AE0000C94B7060C944B060E94940668F3992365
:100AF000B1F3552391F3951B550BBB27AA2762171A
:100B00007307840738F09F5F5F4F220F331F441F26
:100B1000AA1FA9F335D00E2E3AF0E0E832D091505A
:100B20005040E695001CCAF72BD0FE2F29D0660F47
:100B3000771F881FBB1F261737074807AB07B0E88A
:100B400009F0BB0B802DBF01FF2793585F4F3AF090
:100B50009E3F510578F00C9445060C94B7065F3F14
:100B6000E4F3983ED4F3869577956795B795F79516
:100B70009F5FC9F7880F911D9695879597F90895FE
:100B8000E1E0660F771F881FBB1F6217730784079A
:100B9000BA0720F0621B730B840BBA0BEE1F88F7A9
:100BA000E09508950E94D9056894B1110C94B70698
:100BB00008950E949C0688F09F5798F0B92F9927B6
:100BC000B751B0F0E1F0660F771F881F991F1AF038
:100BD000BA95C9F714C0B13091F00E94B606B1E0E1
:100BE00008950C94B606672F782F8827B85F39F0E0
:100BF000B93FCCF3869577956795B395D9F73EF4D1
:100C000090958095709561957F4F8F4F9F4F089578
:100C1000E89409C097FB3EF4909580957095619596
:100C20007F4F8F4F9F4F9923A9F0F92F96E9BB274C
:100C30009395F695879577956795B795F111F8CFC8
:100C4000FAF4BB0F11F460FF1BC06F5F7F4F8F4F33
:100C50009F4F16C0882311F096E911C0772321F029
:100C60009EE8872F762F05C0662371F096E8862FC1
:100C700070E060E02AF09A95660F771F881FDAF718
:100C8000880F9695879597F9089597F99F6780E85B
:100C900070E060E008959FEF80EC0895DF93CF93BC
:100CA0001F930F93FF92EF92DF927B018C01689468
:100CB00006C0DA2EEF010E94D806FE01E894A59145
:100CC0002591359145915591A6F3EF010E94990424
:100CD000FE019701A801DA9469F7DF90EF90FF9089
:100CE0000F911F91CF91DF91089500240A94161659
:100CF000170618060906089500240A94121613060A
:100D0000140605060895092E0394000C11F4882397
:100D100052F0BB0F40F4BF2B11F460FF04C06F5FB3
:100D20007F4F8F4F9F4F089557FD9058440F551F89
:100D300059F05F3F71F04795880F97FB991F61F05D
:100D40009F3F79F087950895121613061406551FD4
:100D5000F2CF4695F1DF08C0161617061806991F40
:100D6000F1CF86957105610508940895E894BB2735
:100D700066277727CB0197F908959B01AC0160E0C6
:100D800070E080E89FE30C9460050E94D8060C9404
:100D900083060E94750638F00E947C0620F0952399
:100DA00011F00C9445060C944B0611240C94B706D4
:100DB0000E94940670F3959FC1F3950F50E0551F64
:100DC000629FF001729FBB27F00DB11D639FAA27A0
:100DD000F00DB11DAA1F649F6627B00DA11D661FEF
:100DE000829F2227B00DA11D621F739FB00DA11D10
:100DF000621F839FA00D611D221F749F3327A00DCA
:100E0000611D231F849F600D211D822F762F6A2F65
:100E100011249F5750409AF0F1F088234AF0EE0FCA
:100E2000FF1FBB1F661F771F881F91505040A9F7F7
:100E30009E3F510580F00C9445060C94B7065F3F29
:100E4000E4F3983ED4F3869577956795B795F79533
:100E5000E7959F5FC1F7FE2B880F911D96958795AB
:100E600097F908959B01AC010C94C50697FB072EDA
:100E700016F4009407D077FD09D00E94B50707FC4F
:100E800005D03EF4909581959F4F0895709561959A
:100E90007F4F0895689401C0E8948F929F92CF93FA
:100EA000DF930E945807DF91CF919F908F90089514
:100EB00088249924F401E401B0E49F93AA279A15A9
:100EC0008B049C04ED05FE05CF05D007A10798F41F
:100ED000AD2FDC2FCF2FFE2FE92D982C892E982FA8
:100EE000872F762F652F542F432F322F2227B8506C
:100EF00031F7BF9127C01B2EBF91BB27220F331F95
:100F0000441F551F661F771F881F991F881C991C37
:100F1000EE1FFF1FCC1FDD1FAA1FBB1F8A149B04DF
:100F2000EC05FD05CE05DF05A007B10748F08A18DE
:100F30009B08EC09FD09CE09DF09A00BB10B21606C
:100F40001A94E1F62EF49401AF01BE01CD01000C1C
:100F500008950024A7FD00942A1730054005500588
:100F600060057005800590050895AA1BBB1B51E123
:100F700007C0AA1FBB1FA617B70710F0A61BB70B09
:100F8000881F991F5A95A9F780959095BC01CD01AE
:060F90000895F894FFCF64
:100F96007374617274656400636F6D706C657465FB
:100FA6006400206D00696E697469616C20616E670A
:100FB6006C650066696E616C20616E676C650069C0
:100FC6006E697469616C206C65667420616E676C0D
:100FD6006500496E7369646520746865206C6F6F7F
:040FE6007020000077
:00000001FF
