S02B000048432D303520426C7565746F6F7468204D6F64756C6520496E746572666163696E672041546D6567E3
S11300000C942A000C9447000C9447000C9447006D
S11300100C9447000C9447000C9447000C94470040
S11300200C9447000C9447000C9447000C94470030
S11300300C9447000C9447000C9447000C94470020
S11300400C9447000C9447000C9447000C94470010
S11300500C94470011241FBECFE5D8E0DEBFCDBF0E
S113006011E0A0E6B0E0E8E0F5E002C005900D92F2
S1130070AA35B107D9F711E0AAE5B1E001C01D9294
S1130080A63AB107E1F70E944E020C9482020C9446
S1130090000010BC83E389B98AB188618AB980B54C
S11300A0866880BD08955D9BFECF8CB908955F9BE3
S11300B0FECF8CB10895CF93DF93EC018881882320
S11300C031F021960E94530089918823D9F7DF915A
S11300D0CF910895EF92FF920F931F93CF93DF93E5
S11300E07C01D62FC0E087010C0F111D0E94570020
S11300F0F80180838D1711F0CF5FF5CFF701EC0F76
S1130100F11D10828E2D9F2DDF91CF911F910F91A4
S1130110FF90EF9008950E94530008950E945700A5
S113012008950E945B000895EF92FF920F931F932E
S1130130CF93DF937C01D62FC0E087010C0F111DF4
S11301400E945700F80180838D1711F0CF5FF5CF1F
S1130150F701EC0FF11D10828E2D9F2DDF91CF91B1
S11301601F910F91FF90EF900895CF93DF938CE050
S113017089B98FEF94E3ACE081509040A040E1F75F
S113018000C0000080E690E00E945B008DE00E94C9
S113019053008AE00E945300CBE5D1E0CE016DE02C
S11301A00E946A000E94570080935A01CE0163E6C0
S11301B070E00E947902282F392F81E02115310542
S11301C009F080E0DF91CF910895CF93DF93DC01B4
S11301D0CB012CE029B92FEF34E34CE0215030401F
S11301E04040E1F700C00000803C32E1930730E07A
S11301F0A30730E0B30729F486E690E00E945B0091
S113020074C0803845E2940740E0A40740E0B40796
S113021029F487E790E00E945B0067C080305BE4CC
S1130220950750E0A50750E0B50729F488E890E069
S11302300E945B005AC0803026E9920720E0A207A2
S113024020E0B20729F48AE990E00E945B004DC0E7
S1130250803031EE930730E0A30730E0B30729F490
S11302608CEA90E00E945B0040C0803042EC94072E
S113027041E0A40740E0B40729F48EEB90E00E942B
S11302805B0033C0803054E8950753E0A50750E085
S1130290B50729F481ED90E00E945B0026C0803010
S11302A028E0920727E0A20720E0B20729F484EEB1
S11302B090E00E945B0019C0803030E193073EE07B
S11302C0A30730E0B30729F487EF90E00E945B00B6
S11302D00CC0803048E1940745E1A40740E0B4072E
S11302E021F48AE091E00E945B008DE00E945300BB
S11302F08AE00E945300CBE5D1E0CE016DE00E947C
S11303006A000E94570080935A01CE0163E670E0B0
S11303100E947902282F392F81E02115310509F037
S113032080E0DF91CF910895CF93DF93EC018CE0CF
S113033089B98FEF94E3ACE081509040A040E1F79D
S113034000C000008EE191E00E945B00CE010E949B
S11303505B008DE00E9453008AE00E945300CBE5CD
S1130360D1E0CE016DE00E946A000E9457008093A4
S11303705A01CE0163E670E00E947902282F392FDA
S113038081E02115310509F080E0DF91CF910895D6
S11303908CE089B98FEF94E3ACE081509040A040A9
S11303A0E1F700C0000087E291E00E945B008DE06D
S11303B00E9453008AE00E94530084E791E06DE0BC
S11303C00E946A000E94570080935A018BE591E0D5
S11303D06DE00E946A000E94570080935A01309198
S11303E07D01332399F020E084E791E001C0242FBC
S11303F0FC01E20FF11D3083422F4F5F265FFC01A9
S1130400E20FF11D3081332391F701C040E0E4E7AE
S1130410F1E0E40FF11D10828BE591E063E670E0FA
S11304200E947902282F392F81E02115310509F026
S113043080E00895CF93DF93EC018CE089B98FEFCE
S113044094E3ACE081509040A040E1F700C000008C
S113045083E391E00E945B00CE010E945B008DE08B
S11304600E9453008AE00E945300CBE5D1E0CE0104
S11304706DE00E946A000E94570080935A01CE01E9
S113048063E670E00E947902282F392F81E021155C
S1130490310509F080E0DF91CF9108958FEF94E367
S11304A0ACE081509040A040E1F700C000008FEF25
S11304B094E3ACE081509040A040E1F700C000001C
S11304C00E9449008CE391E00E9491008DE00E941B
S11304D08B008AE00E948B008CE491E00E949100E2
S11304E08DE00E948B008AE00E948B0080E090E007
S11304F00895FB01DC018D91019080190110D9F35D
S10B0500990B0895F894FFCF54
S11305084154004F4B0041542B554152543D34380B
S113051830302C302C300041542B554152543D3945
S11305283630302C302C300041542B554152543D38
S113053831393230302C302C300041542B55415253
S1130548543D33383430302C302C300041542B5542
S11305584152543D35373630302C302C300041541C
S11305682B554152543D3131353230302C302C30FA
S11305780041542B554152543D3233303430302CE1
S1130588302C300041542B554152543D34363038C8
S113059830302C302C300041542B554152543D39C5
S11305A832313630302C302C300041542B554152E6
S11305B8543D313338323430302C302C30004154EF
S11305C82B4E414D453D0041542B56455253494FFE
S11305D84E3F0041542B505357443D0041424C6117
S11305E86220536F6C7574696F6E73007777772E1A
S10D05F861626C61622E696E0000FE
S9030000FC
