:100000000C942A000C9447000C9447000C94470071
:100010000C9447000C9447000C9447000C94470044
:100020000C9447000C9447000C9447000C94470034
:100030000C9447000C9447000C9447000C94470024
:100040000C9447000C9447000C9447000C94470014
:100050000C94470011241FBECFE5D8E0DEBFCDBF12
:1000600010E0A0E6B0E0EEE3F1E002C005900D92F2
:10007000AE37B107D9F710E0AEE7B0E001C01D928E
:10008000AE37B107E1F70E9472000C949D000C940A
:10009000000010BC83E389B98AB188618AB980B550
:1000A000866880BD08955D9BFECF8CB98FEC97E08C
:1000B0000197F1F700C000000895CF93DF93EC01A2
:1000C0008881882331F021960E94530089918823EA
:1000D000D9F7DF91CF9108950E94530008950E94AF
:1000E0005D0008958FEF94E3ACE081509040A04014
:1000F000E1F700C000008FEF94E3ACE08150904046
:10010000A040E1F700C000000E94490080E690E0B6
:100110000E946F008DE00E946C008AE00E946C00DB
:1001200080E790E00E946F008DE00E946C008AE002
:0E0130000E946C0080E090E00895F894FFCFEC
:10013E0041424C616220536F6C7574696F6E73002F
:0E014E007777772E61626C61622E696E000019
:00000001FF
